:0C10000000008831032820008F31FD2FF4
:101D020000308E3196268E3101308E3196268E31FC
:101D12000800FC3021009900903027009B00210030
:101D22001A1F942E952E902E0800F20022000E10FB
:101D320072088E31E6268E3122008E143F30F10079
:101D42005530890BA22EF10BA22E000022008E101C
:101D52000800F801F901BB2E75087807840076089F
:101D6200793D850000088F3106278E310130F80752
:101D72000030F93D7508780784007608793D8500C2
:101D82001200031DC52EC62EAD2E080057302100AD
:101D9200950022008C010F3021008C0023008C0161
:101DA200083024008C0022008D01F03021008D00CB
:101DB20023008D01F03024008D0022008E010F30AF
:101DC20021008E0023008E010800F000701CEA2E14
:101DD200EB2EEE2E22000E15F02E22000E11F01C1C
:101DE200F32EF42EF62E8E15F72E8E11701DFA2E6E
:101DF200FB2EFD2E0E16FE2E0E12F01D012F022FAF
:101E0200042F8E16052F8E120800F40074080F3965
:101E1200F1007108F2007408F039F1007108F30062
:101E220022000E147308F1000430F136890B162FCC
:101E320071088E31E6268F3122008E14A030890B74
:101E4200202F22008E1072088E31E6268F3122005A
:101E52008E14A030890B2B2F22008E1008008E3199
:101E62008A268F318E31C7268F3121008E018F3124
:101E7200B4278F3120000D1A3F2F402F512F8E3162
:101E820081268F31F301F30A01308F316E278F31B2
:101E92000030F5009030F6008E31AA268F31652F82
:101EA2008D1A542F552F652F8E3181268F31F301D4
:101EB200F30A01308F316E278F310730F5009030F1
:101EC200F6008E31AA268F3120008C19692F6A2FD5
:101ED2003B2F01003B2F88310328F6007603031DB8
:101EE200732F742F912F73087F3EF4007408F9004A
:101EF2007908F4000430F436890B7C2F7408F5005D
:101F02007508F70079080F39F4007408F8007708AB
:101F12008E3196268F3178088E3196268F31B32FE7
:101F220002307606031D962F972FB32F7308BF3EFC
:101F3200F4007408F9007908F4000430F436890BCF
:101F42009F2F7408F5007508F70079080F39F4001F
:101F52007408F80077088E3196268F3178088E3112
:101F620096268F31080000308E31E6268F310230FE
:101F7200F4003830F300AD30890BBD2FF30BBD2FC9
:101F8200F40BBD2F000003308E3196268F314E3078
:101F9200F300EB30890BCB2FF30BCB2F0000033078
:101FA2008E3196268F31AC30F3006C30890BD72FEF
:101FB200F30BD72F003203308E3196268F31023049
:101FC2008E3196268F3102308E3196268F3108302F
:101FD2008E3196268F3100308E3196268F310C301D
:101FE2008E3196268F3100308E3196268F31063013
:101FF2008E3196268F31080020008F31302F4834E1
:1020020065346C346C346F342034003457346F349C
:0A20120072346C346434213400345D
:020000040001F9
:08000000FF3FFF3FFF3FFF3F00
:04000E008C0BCF1B6D
:00000001FF
